S021000054726166666963206C69676874204657442070726F6A6563742E73726563F4
S11300000C942A000C9449000C9447000C9447006B
S11300100C9447000C9447000C9447000C94470040
S11300200C9447000C9447000C9447000C94470030
S11300300C9447000C9447000C9447000C94470020
S11300400C9447000C9447000C9447000C94470010
S11300500C94470011241FBECFE5D8E0DEBFCDBF0E
S113006011E0A0E6B0E0EEE8FFE002C005900D92DA
S1130070AE38B107D9F721E0AEE8B1E001C01D9276
S1130080A539B207E1F70E940B010C94C5070C9443
S113009000001F920F920FB60F9211242F933F93DB
S11300A04F935F936F937F938F939F93AF93BF937C
S11300B0EF93FF930E94F601FF91EF91BF91AF91EF
S11300C09F918F917F916F915F914F913F912F916C
S11300D00F900FBE0F901F901895683010F4843065
S11300E030F080E690E00E94CD0480E0089541E085
S11300F00E94100181E00895683010F4843030F0DB
S113010080E690E00E94CD0480E0089541E00E94E2
S1130110830181E00895683010F4843030F080E683
S113012090E00E94CD0480E0089540E00E948301A5
S113013081E008952F923F924F925F926F927F9247
S11301408F929F92AF92BF92CF92DF92EF92FF92E3
S11301500F931F93CF93DF93222E332E442E552ECD
S1130160662E772E882E992E81E080938E01C0E032
S1130170D0E03AC061E081E40E947C0061E082E466
S11301800E947C000F2EF5E0AF2EF02DB12CC12C77
S1130190D12CE12CF12C00E010E0222D332D442D44
S11301A0552D662D772D882D992D0E945A04A22E47
S11301B0B32EC42ED52EE62EF72E082F192F0E940B
S11301C06E0261E081E40E948B0061E082E40E949F
S11301D08B002A2D3B2D4C2D5D2D6E2D7F2D802FD8
S11301E0912F0E946E022196CA30D1051CF281E043
S11301F0DF91CF911F910F91FF90EF90DF90CF90FF
S1130200BF90AF909F908F907F906F905F904F9032
S11302103F902F9008950E94CE0280E090E00895D0
S1130220683020F4843010F4423030F089E890E0F3
S11302300E94CD0480E00895823419F18434F1F1F0
S1130240813409F058C041110DC02AB381E090E017
S113025002C0880F991F6A95E2F7809582238ABBB2
S113026081E00895413009F048C02AB381E090E06C
S113027002C0880F991F6A95E2F7822B8ABB81E03E
S1130280089541110DC027B381E090E002C0880FAA
S1130290991F6A95E2F78095822387BB81E00895D0
S11302A0413069F527B381E090E002C0880F991FBF
S11302B06A95E2F7822B87BB81E0089541110DC056
S11302C021B381E090E002C0880F991F6A95E2F79C
S11302D08095822381BB81E00895413091F421B35C
S11302E081E090E002C0880F991F6A95E2F7822BA3
S11302F081BB81E0089581E0089581E0089581E063
S1130300089581E00895683020F4843010F4423078
S113031030F080ED90E00E94CD0480E008958234B6
S113032019F18434F1F1813409F058C041110DC040
S11303302BB381E090E002C0880F991F6A95E2F721
S1130340809582238BBB81E00895413009F048C039
S11303502BB381E090E002C0880F991F6A95E2F701
S1130360822B8BBB81E0089541110DC028B381E03D
S113037090E002C0880F991F6A95E2F78095822366
S113038088BB81E00895413069F528B381E090E0AD
S113039002C0880F991F6A95E2F7822B88BB81E01F
S11303A0089541110DC022B381E090E002C0880F8E
S11303B0991F6A95E2F78095822382BB81E00895B4
S11303C0413091F422B381E090E002C0880F991F7C
S11303D06A95E2F7822B82BB81E0089581E008955B
S11303E081E0089581E0089581E00895CA9B0BC0DF
S11303F062E081E40E947C0060E082E40E947C0070
S11304000E94620224C0C89904C080918E01813088
S1130410F1F460E081E40E948B0062E082E40E94D7
S11304208B0088E893E10E949A0061E081E40E94D5
S11304308B0061E082E40E948B0062E081E40E9410
S11304407C0060E082E40E947C000E94620262E020
S113045081E40E948B0088E893E10E949A0060E0A6
S113046082E40E948B0061E081E40E948B0061E0E1
S113047082E40E948B0060E081E40E947C0062E0E0
S113048082E40E947C000E94620260E081E40E9497
S11304908B0062E082E40E948B00089585B58F7B17
S11304A085BD85B5877F85BD08958CE084BD08959D
S11304B085B5816085BD85B5826085BD85B584605F
S11304C085BD089590E007C008B606FEFDCF88B745
S11304D0806488BF9F5F9431B8F30895CF92DF9210
S11304E0EF92FF920F931F936B017C0120E030E0A9
S11304F0A9010E94FC02882354F481E791E09F93B0
S11305008F930E94B7040F900F9080E040C02FE6B5
S113051032E143E853E4C701B6010E94FC02882398
S1130520CCF02FE632E143E853E4C701B6010E9460
S1130530FC028823A1F02FE632E143E853E4C7012B
S1130540B6010E9401030E94E5020E9473038B011D
S11305509C0109C001E010E020E030E004C001E0AB
S113056010E020E030E040E050E0BA010AC008B6F4
S113057006FEFDCF88B7806488BF4F5F5F4F6F4F23
S11305807F4F401751076207730788F381E01F917B
S11305900F91FF90EF90DF90CF9008950E944E024C
S11305A00E9455020E94580263E081E40E946D009B
S11305B063E081E40E947C000E94620263E081E4C3
S11305C00E948B000E946202F3CF0E94390490F0D3
S11305D09F3748F4911116F40C94520460E070E0D3
S11305E080E89FE3089526F01B16611D711D811D8F
S11305F00C94CC030C94E7030E94A20308F481E05A
S113060008950E9415030C9406040E94FF0358F0F9
S11306100E94F80340F029F45F3F29F00C94C603CC
S113062051110C9452040C94F5030E94170468F3BE
S11306309923B1F3552391F3951B550BBB27AA2797
S113064062177307840738F09F5F5F4F220F331FD1
S1130650441FAA1FA9F335D00E2E3AF0E0E832D099
S113066091505040E695001CCAF72BD0FE2F29D09C
S1130670660F771F881FBB1F261737074807AB076E
S1130680B0E809F0BB0B802DBF01FF2793585F4FE3
S11306903AF09E3F510578F00C94C6030C94520432
S11306A05F3FE4F3983ED4F3869577956795B795C5
S11306B0F7959F5FC9F7880F911D9695879597F9D0
S11306C00895E1E0660F771F881FBB1F6217730749
S11306D08407BA0720F0621B730B840BBA0BEE1F5E
S11306E088F7E09508950E941F0488F09F5798F0BA
S11306F0B92F9927B751B0F0E1F0660F771F881F23
S1130700991F1AF0BA95C9F714C0B13091F00E943C
S11307105104B1E008950C945104672F782F882771
S1130720B85F39F0B93FCCF3869577956795B39563
S1130730D9F73EF490958095709561957F4F8F4FD2
S11307409F4F0895990F0008550FAA0BE0E8FEEF9C
S113075016161706E807F907C0F012161306E40781
S1130760F50798F0621B730B840B950B39F40A267A
S113077061F0232B242B252B21F408950A2609F458
S1130780A140A6958FEF811D811D089597F99F675C
S113079080E870E060E00895882371F4772321F005
S11307A09850872B762F07C0662311F499270DC024
S11307B09051862B70E060E02AF09A95660F771FBF
S11307C0881FDAF7880F9695879597F908959F3FC4
S11307D031F0915020F4879577956795B795880FF8
S11307E0911D9695879597F908959FEF80EC08954C
S11307F000240A94161617061806090608950024FC
S11308000A9412161306140605060895092E039475
S1130810000C11F4882352F0BB0F40F4BF2B11F4E9
S113082060FF04C06F5F7F4F8F4F9F4F089557FD48
S11308309058440F551F59F05F3F71F04795880F4A
S113084097FB991F61F09F3F79F0879508951216E1
S113085013061406551FF2CF4695F1DF08C016168D
S113086017061806991FF1CF86957105610508943E
S113087008950E941F04A0F0BEE7B91788F4BB27AF
S11308809F3860F41616B11D672F782F8827985F5C
S1130890F7CF869577956795B11D93959639C8F3EB
S11308A00895E894BB2766277727CB0197F9089525
S11308B0689401C0E8948F929F92CF93DF930E9433
S11308C06604DF91CF919F908F9008958824992496
S11308D0F401E401B0E49F93AA279A158B049C04C5
S11308E0ED05FE05CF05D007A10798F4AD2FDC2F49
S11308F0CF2FFE2FE92D982C892E982F872F762F16
S1130900652F542F432F322F2227B85031F7BF9130
S113091027C01B2EBF91BB27220F331F441F551F17
S1130920661F771F881F991F881C991CEE1FFF1FC5
S1130930CC1FDD1FAA1FBB1F8A149B04EC05FD05F9
S1130940CE05DF05A007B10748F08A189B08EC091B
S1130950FD09CE09DF09A00BB10B21601A94E1F661
S11309602EF49401AF01BE01CD01000C0895A0E066
S1130970B0E0EDEBF4E00C949E07AE014B5F5F4FEB
S1130980FA0161917191AF0180919101909192016D
S11309900E94FD04E2E00C94BA070F931F93CF93D7
S11309A0DF93E0919101F0919201238121FF1BC01B
S11309B08C01D0E0C0E0F80181918F016091910138
S11309C070919201DB011896ED91FC91199788239F
S11309D031F00995892B79F3DFEFCFEFECCF8AE083
S11309E00995892B19F08FEF9FEF02C08D2F9C2F53
S11309F0DF91CF911F910F910895ABE0B0E0E3E058
S1130A00F5E00C948E076C017B018A01FC011782CE
S1130A101682838181FFCCC1CE0101963C01F6018F
S1130A209381F70193FD859193FF81917F01882341
S1130A3009F4BAC1853239F493FD859193FF81910C
S1130A407F01853229F4B60190E00E94F406E7CFD5
S1130A50912C212C312CFFE1F315D8F08B3279F055
S1130A6038F4803279F08332A1F4232D20611DC043
S1130A708D3261F0803369F4232D216016C0832DFB
S1130A808260382EE32DE4603E2E2AC0F32DF860F8
S1130A901DC037FC2DC020ED280F2A3040F08E32C7
S1130AA0B9F436FC81C1232D2064322E19C036FEE0
S1130AB006C08AE0989E200D1124922E11C0EAE00F
S1130AC02E9E200D1124222EF32DF0623F2E08C0FD
S1130AD08C3621F4832D8068382E02C0883641F488
S1130AE0F70193FD859193FF81917F018111B3CF2C
S1130AF0982F9F7D9554933028F40C5F1F4F9FE3EC
S1130B0099830DC0833631F0833771F0833509F052
S1130B1059C021C0F801808189830E5F1F4F88244A
S1130B208394912C530113C02801F2E04F0E511C01
S1130B30F801A080B18036FE03C0692D70E002C0C8
S1130B406FEF7FEFC5010E94E9064C018201F32D8E
S1130B50FF773F2E16C0280122E0420E511CF801F7
S1130B60A080B18036FE03C0692D70E002C06FEF33
S1130B707FEFC5010E94DE064C01F32DF0683F2E85
S1130B80820133FC1BC0822D90E088169906B0F4D4
S1130B90B60180E290E00E94F4062A94F4CFF501B5
S1130BA037FC859137FE81915F01B60190E00E9488
S1130BB0F40621102A9421E0821A910881149104E8
S1130BC071F7E8C0843611F0893641F5F80137FE33
S1130BD007C060817181828193810C5F1F4F08C0BF
S1130BE060817181072E000C880B990B0E5F1F4FDB
S1130BF0F32DFF763F2E97FF09C090958095709551
S1130C0061957F4F8F4F9F4FF0683F2E2AE030E071
S1130C10A3010E943007882E861845C0853731F419
S1130C20232D2F7EB22E2AE030E025C0932D997F0C
S1130C30B92E8F36C1F018F4883579F0B5C08037F5
S1130C4019F0883721F0B0C0E92FE061BE2EB4FE60
S1130C500DC0FB2DF460BF2E09C034FE0AC0292F3D
S1130C602660B22E06C028E030E005C020E130E066
S1130C7002C020E132E0F801B7FE07C06081718153
S1130C80828193810C5F1F4F06C06081718180E077
S1130C9090E00E5F1F4FA3010E943007882E861834
S1130CA0FB2DFF773F2E36FE0DC0232D2E7FA22E67
S1130CB0891458F434FE0BC032FC09C0832D8E7E97
S1130CC0A82E05C0B82CA32C03C0B82C01C0B92C85
S1130CD0A4FE0FC0FE01E80DF11D8081803321F4D4
S1130CE09A2D997EA92E09C0A2FE06C0B394B3948E
S1130CF004C08A2D867809F0B394A3FC11C0A0FE29
S1130D0006C0B21488F4280C922C9B180EC0B2149E
S1130D1060F4B60180E290E00E94F406B394F7CF49
S1130D20B21418F42B1802C0982C212CA4FE10C065
S1130D30B60180E390E00E94F406A2FE17C0A1FC75
S1130D4003C088E790E002C088E590E0B6010CC0DB
S1130D508A2D867859F0A1FE02C08BE201C080E2A0
S1130D60A7FC8DE2B60190E00E94F406891438F4E1
S1130D70B60180E390E00E94F4069A94F7CF8A9437
S1130D80F301E80DF11D8081B60190E00E94F406A4
S1130D908110F5CF222009F442CEB60180E290E022
S1130DA00E94F4062A94F6CFF6018681978102C048
S1130DB08FEF9FEF2B96E2E10C94AA07FC010590BC
S1130DC0615070400110D8F7809590958E0F9F1F49
S1130DD00895FC016150704001900110D8F780958E
S1130DE090958E0F9F1F08950F931F93CF93DF93BA
S1130DF0FB01238121FD03C08FEF9FEF2CC022FF55
S1130E0016C046815781248135814217530744F423
S1130E10A081B1819D012F5F3F4F318320838C934B
S1130E20268137812F5F3F4F3783268314C08B0180
S1130E30EC01FB010084F185E02D0995892BE1F695
S1130E40D80116968D919C911797019617969C93AD
S1130E508E931697CE01DF91CF911F910F91089534
S1130E60FA01AA27283051F1203181F1E8946F93D7
S1130E706E7F6E5F7F4F8F4F9F4FAF4FB1E03ED07D
S1130E80B4E03CD0670F781F891F9A1FA11D680F1B
S1130E90791F8A1F911DA11D6A0F711D811D911D4E
S1130EA0A11D20D009F468943F912AE0269F1124C3
S1130EB03019305D3193DEF6CF010895462F477027
S1130EC0405D4193B3E00FD0C9F7F6CF462F4F7082
S1130ED0405D4A3318F0495D31FD4052419302D0E0
S1130EE0A9F7EACFB4E0A695979587957795679586
S1130EF0BA95C9F700976105710508959B01AC0186
S1130F000A2E06945795479537952795BA95C9F7AC
S1130F10620F731F841F951FA01D08952F923F9287
S1130F204F925F926F927F928F929F92AF92BF92F5
S1130F30CF92DF92EF92FF920F931F93CF93DF93A1
S1130F40CDB7DEB7CA1BDB0B0FB6F894DEBF0FBEFE
S1130F50CDBF09942A88398848885F846E847D844B
S1130F608C849B84AA84B984C884DF80EE80FD804D
S1130F700C811B81AA81B981CE0FD11D0FB6F894C3
S1110F80DEBF0FBECDBFED010895F894FFCF84
S1130F8E706C6561736520656E74657220636F7233
S1130F9E7265637420706F7274206F722070696E44
S1130FAE206E756D6265727300706C656173652079
S1130FBE656E74657220636F727265637420706FF0
S1130FCE7274206F722070696E206E756D62657218
S1130FDE7320616E64204F5554206F7220494E2049
S1130FEE646972656374696F6E73206F6E6C7900D9
S1130FFE706C6561736520656E74657220636F72C3
S113100E7265637420706F7274206F722070696ED3
S113101E206E756D6265727320616E642048494757
S113102E48206F72204C4F572076616C7565732083
S113103E6F6E6C792000706C6561736520656E74DB
S113104E657220636F727265637420706F727420A0
S113105E6F722070696E206E756D62657273206199
S113106E6E642061646472657373206F6E6C7900B4
S113107E706C6561736520656E74657220706F7334
S113108E697469766520696E74206E756D62657219
S113109E00706C6561736520656E74657220706F87
S11110AE736974697665206E756D62657200F3
S9030000FC
